{
  "contractName": "PriceGenerator",
  "abi": [
    {
      "inputs": [],
      "stateMutability": "nonpayable",
      "type": "constructor"
    },
    {
      "inputs": [],
      "name": "minter",
      "outputs": [
        {
          "internalType": "address",
          "name": "",
          "type": "address"
        }
      ],
      "stateMutability": "view",
      "type": "function",
      "constant": true
    },
    {
      "inputs": [],
      "name": "price",
      "outputs": [
        {
          "internalType": "uint256",
          "name": "",
          "type": "uint256"
        }
      ],
      "stateMutability": "view",
      "type": "function",
      "constant": true
    },
    {
      "inputs": [
        {
          "internalType": "uint256",
          "name": "_price",
          "type": "uint256"
        }
      ],
      "name": "setPrice",
      "outputs": [],
      "stateMutability": "nonpayable",
      "type": "function"
    }
  ],
  "bytecode": "0x608060405260015f55348015610013575f80fd5b503360015f6101000a81548173ffffffffffffffffffffffffffffffffffffffff021916908373ffffffffffffffffffffffffffffffffffffffff160217905550610313806100615f395ff3fe608060405234801561000f575f80fd5b506004361061003f575f3560e01c8063075461721461004357806391b7f5ed14610061578063a035b1fe1461007d575b5f80fd5b61004b61009b565b604051610058919061019c565b60405180910390f35b61007b600480360381019061007691906101ec565b6100c0565b005b610085610158565b6040516100929190610226565b60405180910390f35b60015f9054906101000a900473ffffffffffffffffffffffffffffffffffffffff1681565b60015f9054906101000a900473ffffffffffffffffffffffffffffffffffffffff1673ffffffffffffffffffffffffffffffffffffffff163373ffffffffffffffffffffffffffffffffffffffff161461014f576040517f08c379a0000000000000000000000000000000000000000000000000000000008152600401610146906102bf565b60405180910390fd5b805f8190555050565b5f5481565b5f73ffffffffffffffffffffffffffffffffffffffff82169050919050565b5f6101868261015d565b9050919050565b6101968161017c565b82525050565b5f6020820190506101af5f83018461018d565b92915050565b5f80fd5b5f819050919050565b6101cb816101b9565b81146101d5575f80fd5b50565b5f813590506101e6816101c2565b92915050565b5f60208284031215610201576102006101b5565b5b5f61020e848285016101d8565b91505092915050565b610220816101b9565b82525050565b5f6020820190506102395f830184610217565b92915050565b5f82825260208201905092915050565b7f4f6e6c792074686520636f6e74726163742063616e20736574207468652070725f8201527f6963650000000000000000000000000000000000000000000000000000000000602082015250565b5f6102a960238361023f565b91506102b48261024f565b604082019050919050565b5f6020820190508181035f8301526102d68161029d565b905091905056fea264697066735822122081c88132eb3dc7c634a3ba57a3aa5c69ebe2d8c731861295fcbfa79613e10cce64736f6c63430008150033",
  "immutableReferences": {},
  "source": "// SPDX-License-Identifier: MIT\r\npragma solidity >=0.4.22 <0.9.0;\r\n\r\ncontract PriceGenerator{\r\n\r\n    uint256 public price = 1.0;\r\n    address public minter;\r\n\r\n    constructor() {\r\n        minter = msg.sender;\r\n    }\r\n\r\n    function setPrice(uint256 _price) public {\r\n        require(msg.sender == minter, \"Only the contract can set the price\");\r\n        price = _price;\r\n    }\r\n}",
  "sourcePath": "C:\\Users\\utente\\Documents\\Uni\\magistrale\\data security\\progetto\\Stablecoin\\TruffleTest\\contracts\\PriceGenerator.sol",
  "compiler": {
    "name": "solc",
    "version": "0.8.21+commit.d9974bed.Emscripten.clang"
  },
  "schemaVersion": "3.4.16",
  "updatedAt": "2024-03-13T16:43:32.500Z",
  "networkType": "ethereum",
  "devdoc": {
    "kind": "dev",
    "methods": {},
    "version": 1
  },
  "userdoc": {
    "kind": "user",
    "methods": {},
    "version": 1
  }
}