{
  "contractName": "UniPGStablecoin",
  "abi": [
    {
      "inputs": [
        {
          "internalType": "string",
          "name": "_name",
          "type": "string"
        },
        {
          "internalType": "string",
          "name": "_symbol",
          "type": "string"
        },
        {
          "internalType": "uint8",
          "name": "_decimals",
          "type": "uint8"
        },
        {
          "internalType": "contract PriceGenerator",
          "name": "_priceGenerator",
          "type": "address"
        }
      ],
      "stateMutability": "nonpayable",
      "type": "constructor"
    },
    {
      "inputs": [
        {
          "internalType": "uint256",
          "name": "requested",
          "type": "uint256"
        },
        {
          "internalType": "uint256",
          "name": "available",
          "type": "uint256"
        }
      ],
      "name": "InsufficientBalance",
      "type": "error"
    },
    {
      "anonymous": false,
      "inputs": [
        {
          "indexed": true,
          "internalType": "address",
          "name": "owner",
          "type": "address"
        },
        {
          "indexed": true,
          "internalType": "address",
          "name": "spender",
          "type": "address"
        },
        {
          "indexed": false,
          "internalType": "uint256",
          "name": "value",
          "type": "uint256"
        }
      ],
      "name": "Approval",
      "type": "event"
    },
    {
      "anonymous": false,
      "inputs": [
        {
          "indexed": true,
          "internalType": "address",
          "name": "from",
          "type": "address"
        },
        {
          "indexed": true,
          "internalType": "address",
          "name": "to",
          "type": "address"
        },
        {
          "indexed": false,
          "internalType": "uint256",
          "name": "value",
          "type": "uint256"
        }
      ],
      "name": "Transfer",
      "type": "event"
    },
    {
      "inputs": [
        {
          "internalType": "address",
          "name": "",
          "type": "address"
        },
        {
          "internalType": "address",
          "name": "",
          "type": "address"
        }
      ],
      "name": "allowance",
      "outputs": [
        {
          "internalType": "uint256",
          "name": "",
          "type": "uint256"
        }
      ],
      "stateMutability": "view",
      "type": "function",
      "constant": true
    },
    {
      "inputs": [
        {
          "internalType": "address",
          "name": "",
          "type": "address"
        }
      ],
      "name": "balanceOf",
      "outputs": [
        {
          "internalType": "uint256",
          "name": "",
          "type": "uint256"
        }
      ],
      "stateMutability": "view",
      "type": "function",
      "constant": true
    },
    {
      "inputs": [],
      "name": "decimals",
      "outputs": [
        {
          "internalType": "uint8",
          "name": "",
          "type": "uint8"
        }
      ],
      "stateMutability": "view",
      "type": "function",
      "constant": true
    },
    {
      "inputs": [],
      "name": "initialMinting",
      "outputs": [
        {
          "internalType": "bool",
          "name": "",
          "type": "bool"
        }
      ],
      "stateMutability": "view",
      "type": "function",
      "constant": true
    },
    {
      "inputs": [],
      "name": "isRebasing",
      "outputs": [
        {
          "internalType": "bool",
          "name": "",
          "type": "bool"
        }
      ],
      "stateMutability": "view",
      "type": "function",
      "constant": true
    },
    {
      "inputs": [],
      "name": "minter",
      "outputs": [
        {
          "internalType": "address",
          "name": "",
          "type": "address"
        }
      ],
      "stateMutability": "view",
      "type": "function",
      "constant": true
    },
    {
      "inputs": [],
      "name": "name",
      "outputs": [
        {
          "internalType": "string",
          "name": "",
          "type": "string"
        }
      ],
      "stateMutability": "view",
      "type": "function",
      "constant": true
    },
    {
      "inputs": [],
      "name": "priceGen",
      "outputs": [
        {
          "internalType": "contract PriceGenerator",
          "name": "",
          "type": "address"
        }
      ],
      "stateMutability": "view",
      "type": "function",
      "constant": true
    },
    {
      "inputs": [],
      "name": "symbol",
      "outputs": [
        {
          "internalType": "string",
          "name": "",
          "type": "string"
        }
      ],
      "stateMutability": "view",
      "type": "function",
      "constant": true
    },
    {
      "inputs": [],
      "name": "totalSupply",
      "outputs": [
        {
          "internalType": "uint256",
          "name": "",
          "type": "uint256"
        }
      ],
      "stateMutability": "view",
      "type": "function",
      "constant": true
    },
    {
      "inputs": [
        {
          "internalType": "uint256",
          "name": "",
          "type": "uint256"
        }
      ],
      "name": "walletAddresses",
      "outputs": [
        {
          "internalType": "address",
          "name": "",
          "type": "address"
        }
      ],
      "stateMutability": "view",
      "type": "function",
      "constant": true
    },
    {
      "inputs": [
        {
          "internalType": "address",
          "name": "to",
          "type": "address"
        },
        {
          "internalType": "uint256",
          "name": "amount",
          "type": "uint256"
        }
      ],
      "name": "mint",
      "outputs": [],
      "stateMutability": "nonpayable",
      "type": "function"
    },
    {
      "inputs": [],
      "name": "blockMinting",
      "outputs": [],
      "stateMutability": "nonpayable",
      "type": "function"
    },
    {
      "inputs": [],
      "name": "rebase",
      "outputs": [],
      "stateMutability": "nonpayable",
      "type": "function"
    },
    {
      "inputs": [
        {
          "internalType": "address",
          "name": "recipient",
          "type": "address"
        },
        {
          "internalType": "uint256",
          "name": "amount",
          "type": "uint256"
        }
      ],
      "name": "transfer",
      "outputs": [
        {
          "internalType": "bool",
          "name": "",
          "type": "bool"
        }
      ],
      "stateMutability": "nonpayable",
      "type": "function"
    },
    {
      "inputs": [
        {
          "internalType": "address",
          "name": "spender",
          "type": "address"
        },
        {
          "internalType": "uint256",
          "name": "amount",
          "type": "uint256"
        }
      ],
      "name": "approve",
      "outputs": [
        {
          "internalType": "bool",
          "name": "",
          "type": "bool"
        }
      ],
      "stateMutability": "nonpayable",
      "type": "function"
    },
    {
      "inputs": [
        {
          "internalType": "address",
          "name": "sender",
          "type": "address"
        },
        {
          "internalType": "address",
          "name": "recipient",
          "type": "address"
        },
        {
          "internalType": "uint256",
          "name": "amount",
          "type": "uint256"
        }
      ],
      "name": "transferFrom",
      "outputs": [
        {
          "internalType": "bool",
          "name": "",
          "type": "bool"
        }
      ],
      "stateMutability": "nonpayable",
      "type": "function"
    }
  ],
  "bytecode": "0x608060405234801562000010575f80fd5b506040516200219338038062002193833981810160405281019062000036919062000366565b83600190816200004791906200064a565b5082600290816200005991906200064a565b508160035f6101000a81548160ff021916908360ff160217905550805f806101000a81548173ffffffffffffffffffffffffffffffffffffffff021916908373ffffffffffffffffffffffffffffffffffffffff16021790555033600560026101000a81548173ffffffffffffffffffffffffffffffffffffffff021916908373ffffffffffffffffffffffffffffffffffffffff1602179055505f60055f6101000a81548160ff0219169083151502179055506001600560016101000a81548160ff021916908315150217905550505050506200072e565b5f604051905090565b5f80fd5b5f80fd5b5f80fd5b5f80fd5b5f601f19601f8301169050919050565b7f4e487b71000000000000000000000000000000000000000000000000000000005f52604160045260245ffd5b62000193826200014b565b810181811067ffffffffffffffff82111715620001b557620001b46200015b565b5b80604052505050565b5f620001c962000132565b9050620001d7828262000188565b919050565b5f67ffffffffffffffff821115620001f957620001f86200015b565b5b62000204826200014b565b9050602081019050919050565b5f5b838110156200023057808201518184015260208101905062000213565b5f8484015250505050565b5f620002516200024b84620001dc565b620001be565b90508281526020810184848401111562000270576200026f62000147565b5b6200027d84828562000211565b509392505050565b5f82601f8301126200029c576200029b62000143565b5b8151620002ae8482602086016200023b565b91505092915050565b5f60ff82169050919050565b620002ce81620002b7565b8114620002d9575f80fd5b50565b5f81519050620002ec81620002c3565b92915050565b5f73ffffffffffffffffffffffffffffffffffffffff82169050919050565b5f6200031d82620002f2565b9050919050565b5f620003308262000311565b9050919050565b620003428162000324565b81146200034d575f80fd5b50565b5f81519050620003608162000337565b92915050565b5f805f80608085870312156200038157620003806200013b565b5b5f85015167ffffffffffffffff811115620003a157620003a06200013f565b5b620003af8782880162000285565b945050602085015167ffffffffffffffff811115620003d357620003d26200013f565b5b620003e18782880162000285565b9350506040620003f487828801620002dc565b9250506060620004078782880162000350565b91505092959194509250565b5f81519050919050565b7f4e487b71000000000000000000000000000000000000000000000000000000005f52602260045260245ffd5b5f60028204905060018216806200046257607f821691505b6020821081036200047857620004776200041d565b5b50919050565b5f819050815f5260205f209050919050565b5f6020601f8301049050919050565b5f82821b905092915050565b5f60088302620004dc7fffffffffffffffffffffffffffffffffffffffffffffffffffffffffffffffff826200049f565b620004e886836200049f565b95508019841693508086168417925050509392505050565b5f819050919050565b5f819050919050565b5f620005326200052c620005268462000500565b62000509565b62000500565b9050919050565b5f819050919050565b6200054d8362000512565b620005656200055c8262000539565b848454620004ab565b825550505050565b5f90565b6200057b6200056d565b6200058881848462000542565b505050565b5b81811015620005af57620005a35f8262000571565b6001810190506200058e565b5050565b601f821115620005fe57620005c8816200047e565b620005d38462000490565b81016020851015620005e3578190505b620005fb620005f28562000490565b8301826200058d565b50505b505050565b5f82821c905092915050565b5f620006205f198460080262000603565b1980831691505092915050565b5f6200063a83836200060f565b9150826002028217905092915050565b620006558262000413565b67ffffffffffffffff8111156200067157620006706200015b565b5b6200067d82546200044a565b6200068a828285620005b3565b5f60209050601f831160018114620006c0575f8415620006ab578287015190505b620006b785826200062d565b86555062000726565b601f198416620006d0866200047e565b5f5b82811015620006f957848901518255600182019150602085019450602081019050620006d2565b8683101562000719578489015162000715601f8916826200060f565b8355505b6001600288020188555050505b505050505050565b611a57806200073c5f395ff3fe608060405234801561000f575f80fd5b5060043610610109575f3560e01c806340c10f19116100a05780639d2e42931161006f5780639d2e4293146102bb578063a9059cbb146102c5578063a9d5c3ac146102f5578063af14052c14610313578063dd62ed3e1461031d57610109565b806340c10f19146102335780635dfba1151461024f57806370a082311461026d57806395d89b411461029d57610109565b80631469d5d4116100dc5780631469d5d41461019757806318160ddd146101c757806323b872dd146101e5578063313ce5671461021557610109565b80630491739f1461010d57806306fdde031461012b5780630754617214610149578063095ea7b314610167575b5f80fd5b61011561034d565b604051610122919061125f565b60405180910390f35b610133610360565b6040516101409190611302565b60405180910390f35b6101516103ec565b60405161015e9190611361565b60405180910390f35b610181600480360381019061017c91906113db565b610412565b60405161018e919061125f565b60405180910390f35b6101b160048036038101906101ac9190611419565b6104ff565b6040516101be9190611361565b60405180910390f35b6101cf61053a565b6040516101dc9190611453565b60405180910390f35b6101ff60048036038101906101fa919061146c565b610540565b60405161020c919061125f565b60405180910390f35b61021d6107c3565b60405161022a91906114d7565b60405180910390f35b61024d600480360381019061024891906113db565b6107d5565b005b610257610929565b604051610264919061125f565b60405180910390f35b610287600480360381019061028291906114f0565b61093b565b6040516102949190611453565b60405180910390f35b6102a5610950565b6040516102b29190611302565b60405180910390f35b6102c36109dc565b005b6102df60048036038101906102da91906113db565b610ade565b6040516102ec919061125f565b60405180910390f35b6102fd610d32565b60405161030a9190611576565b60405180910390f35b61031b610d55565b005b6103376004803603810190610332919061158f565b610def565b6040516103449190611453565b60405180910390f35b600560019054906101000a900460ff1681565b6001805461036d906115fa565b80601f0160208091040260200160405190810160405280929190818152602001828054610399906115fa565b80156103e45780601f106103bb576101008083540402835291602001916103e4565b820191905f5260205f20905b8154815290600101906020018083116103c757829003601f168201915b505050505081565b600560029054906101000a900473ffffffffffffffffffffffffffffffffffffffff1681565b5f8160085f3373ffffffffffffffffffffffffffffffffffffffff1673ffffffffffffffffffffffffffffffffffffffff1681526020019081526020015f205f8573ffffffffffffffffffffffffffffffffffffffff1673ffffffffffffffffffffffffffffffffffffffff1681526020019081526020015f20819055508273ffffffffffffffffffffffffffffffffffffffff163373ffffffffffffffffffffffffffffffffffffffff167f8c5be1e5ebec7d5bd14f71427d1e84f3dd0314c0f7b2291e5b200ac8c7c3b925846040516104ed9190611453565b60405180910390a36001905092915050565b6007818154811061050e575f80fd5b905f5260205f20015f915054906101000a900473ffffffffffffffffffffffffffffffffffffffff1681565b60045481565b5f60055f9054906101000a900460ff161561055d575f90506107bc565b60065f3373ffffffffffffffffffffffffffffffffffffffff1673ffffffffffffffffffffffffffffffffffffffff1681526020019081526020015f205482111561061e578160065f3373ffffffffffffffffffffffffffffffffffffffff1673ffffffffffffffffffffffffffffffffffffffff1681526020019081526020015f20546040517fcf47918100000000000000000000000000000000000000000000000000000000815260040161061592919061162a565b60405180910390fd5b8160085f8673ffffffffffffffffffffffffffffffffffffffff1673ffffffffffffffffffffffffffffffffffffffff1681526020019081526020015f205f3373ffffffffffffffffffffffffffffffffffffffff1673ffffffffffffffffffffffffffffffffffffffff1681526020019081526020015f205f8282546106a5919061167e565b925050819055508160065f8673ffffffffffffffffffffffffffffffffffffffff1673ffffffffffffffffffffffffffffffffffffffff1681526020019081526020015f205f8282546106f8919061167e565b925050819055508160065f8573ffffffffffffffffffffffffffffffffffffffff1673ffffffffffffffffffffffffffffffffffffffff1681526020019081526020015f205f82825461074b91906116b1565b925050819055508273ffffffffffffffffffffffffffffffffffffffff168473ffffffffffffffffffffffffffffffffffffffff167fddf252ad1be2c89b69c2b068fc378daa952ba7f163c4a11628f55a4df523b3ef846040516107af9190611453565b60405180910390a3600190505b9392505050565b60035f9054906101000a900460ff1681565b600560029054906101000a900473ffffffffffffffffffffffffffffffffffffffff1673ffffffffffffffffffffffffffffffffffffffff163373ffffffffffffffffffffffffffffffffffffffff1614610865576040517f08c379a000000000000000000000000000000000000000000000000000000000815260040161085c90611754565b60405180910390fd5b60011515600560019054906101000a900460ff161515146108bb576040517f08c379a00000000000000000000000000000000000000000000000000000000081526004016108b2906117bc565b60405180910390fd5b600782908060018154018082558091505060019003905f5260205f20015f9091909190916101000a81548173ffffffffffffffffffffffffffffffffffffffff021916908373ffffffffffffffffffffffffffffffffffffffff1602179055506109258282610e0f565b5050565b60055f9054906101000a900460ff1681565b6006602052805f5260405f205f915090505481565b6002805461095d906115fa565b80601f0160208091040260200160405190810160405280929190818152602001828054610989906115fa565b80156109d45780601f106109ab576101008083540402835291602001916109d4565b820191905f5260205f20905b8154815290600101906020018083116109b757829003601f168201915b505050505081565b600560029054906101000a900473ffffffffffffffffffffffffffffffffffffffff1673ffffffffffffffffffffffffffffffffffffffff163373ffffffffffffffffffffffffffffffffffffffff1614610a6c576040517f08c379a0000000000000000000000000000000000000000000000000000000008152600401610a639061184a565b60405180910390fd5b60011515600560019054906101000a900460ff16151514610ac2576040517f08c379a0000000000000000000000000000000000000000000000000000000008152600401610ab9906117bc565b60405180910390fd5b5f600560016101000a81548160ff021916908315150217905550565b5f80151560055f9054906101000a900460ff16151514610afc575f80fd5b60065f3373ffffffffffffffffffffffffffffffffffffffff1673ffffffffffffffffffffffffffffffffffffffff1681526020019081526020015f2054821115610bbd578160065f3373ffffffffffffffffffffffffffffffffffffffff1673ffffffffffffffffffffffffffffffffffffffff1681526020019081526020015f20546040517fcf479181000000000000000000000000000000000000000000000000000000008152600401610bb492919061162a565b60405180910390fd5b8160065f3373ffffffffffffffffffffffffffffffffffffffff1673ffffffffffffffffffffffffffffffffffffffff1681526020019081526020015f205f828254610c09919061167e565b925050819055508160065f8573ffffffffffffffffffffffffffffffffffffffff1673ffffffffffffffffffffffffffffffffffffffff1681526020019081526020015f205f828254610c5c91906116b1565b92505081905550600783908060018154018082558091505060019003905f5260205f20015f9091909190916101000a81548173ffffffffffffffffffffffffffffffffffffffff021916908373ffffffffffffffffffffffffffffffffffffffff1602179055508273ffffffffffffffffffffffffffffffffffffffff163373ffffffffffffffffffffffffffffffffffffffff167fddf252ad1be2c89b69c2b068fc378daa952ba7f163c4a11628f55a4df523b3ef84604051610d209190611453565b60405180910390a36001905092915050565b5f8054906101000a900473ffffffffffffffffffffffffffffffffffffffff1681565b600560029054906101000a900473ffffffffffffffffffffffffffffffffffffffff1673ffffffffffffffffffffffffffffffffffffffff163373ffffffffffffffffffffffffffffffffffffffff1614610de5576040517f08c379a0000000000000000000000000000000000000000000000000000000008152600401610ddc906118b2565b60405180910390fd5b610ded610f05565b565b6008602052815f5260405f20602052805f5260405f205f91509150505481565b8060065f8473ffffffffffffffffffffffffffffffffffffffff1673ffffffffffffffffffffffffffffffffffffffff1681526020019081526020015f205f828254610e5b91906116b1565b925050819055508060045f828254610e7391906116b1565b925050819055508173ffffffffffffffffffffffffffffffffffffffff16600560029054906101000a900473ffffffffffffffffffffffffffffffffffffffff1673ffffffffffffffffffffffffffffffffffffffff167fddf252ad1be2c89b69c2b068fc378daa952ba7f163c4a11628f55a4df523b3ef83604051610ef99190611453565b60405180910390a35050565b600160055f6101000a81548160ff0219169083151502179055505f805f9054906101000a900473ffffffffffffffffffffffffffffffffffffffff1673ffffffffffffffffffffffffffffffffffffffff1663a035b1fe6040518163ffffffff1660e01b8152600401602060405180830381865afa158015610f89573d5f803e3d5ffd5b505050506040513d601f19601f82011682018060405250810190610fad91906118e4565b90505f5b600780549050811015611132575f60065f60078481548110610fd657610fd561190f565b5b905f5260205f20015f9054906101000a900473ffffffffffffffffffffffffffffffffffffffff1673ffffffffffffffffffffffffffffffffffffffff1673ffffffffffffffffffffffffffffffffffffffff1681526020019081526020015f205490505f670de0b6b3a76400008483611050919061193c565b61105a91906119aa565b82611065919061167e565b9050670de0b6b3a76400008411156110c1576110bc6007848154811061108e5761108d61190f565b5b905f5260205f20015f9054906101000a900473ffffffffffffffffffffffffffffffffffffffff1682610e0f565b61111d565b670de0b6b3a764000084101561111b57611116600784815481106110e8576110e761190f565b5b905f5260205f20015f9054906101000a900473ffffffffffffffffffffffffffffffffffffffff168261114f565b61111c565b5b5b5050808061112a906119da565b915050610fb1565b505f60055f6101000a81548160ff02191690831515021790555050565b8060065f8473ffffffffffffffffffffffffffffffffffffffff1673ffffffffffffffffffffffffffffffffffffffff1681526020019081526020015f205f82825461119b919061167e565b925050819055508060045f8282546111b3919061167e565b92505081905550600560029054906101000a900473ffffffffffffffffffffffffffffffffffffffff1673ffffffffffffffffffffffffffffffffffffffff168273ffffffffffffffffffffffffffffffffffffffff167fddf252ad1be2c89b69c2b068fc378daa952ba7f163c4a11628f55a4df523b3ef836040516112399190611453565b60405180910390a35050565b5f8115159050919050565b61125981611245565b82525050565b5f6020820190506112725f830184611250565b92915050565b5f81519050919050565b5f82825260208201905092915050565b5f5b838110156112af578082015181840152602081019050611294565b5f8484015250505050565b5f601f19601f8301169050919050565b5f6112d482611278565b6112de8185611282565b93506112ee818560208601611292565b6112f7816112ba565b840191505092915050565b5f6020820190508181035f83015261131a81846112ca565b905092915050565b5f73ffffffffffffffffffffffffffffffffffffffff82169050919050565b5f61134b82611322565b9050919050565b61135b81611341565b82525050565b5f6020820190506113745f830184611352565b92915050565b5f80fd5b61138781611341565b8114611391575f80fd5b50565b5f813590506113a28161137e565b92915050565b5f819050919050565b6113ba816113a8565b81146113c4575f80fd5b50565b5f813590506113d5816113b1565b92915050565b5f80604083850312156113f1576113f061137a565b5b5f6113fe85828601611394565b925050602061140f858286016113c7565b9150509250929050565b5f6020828403121561142e5761142d61137a565b5b5f61143b848285016113c7565b91505092915050565b61144d816113a8565b82525050565b5f6020820190506114665f830184611444565b92915050565b5f805f606084860312156114835761148261137a565b5b5f61149086828701611394565b93505060206114a186828701611394565b92505060406114b2868287016113c7565b9150509250925092565b5f60ff82169050919050565b6114d1816114bc565b82525050565b5f6020820190506114ea5f8301846114c8565b92915050565b5f602082840312156115055761150461137a565b5b5f61151284828501611394565b91505092915050565b5f819050919050565b5f61153e61153961153484611322565b61151b565b611322565b9050919050565b5f61154f82611524565b9050919050565b5f61156082611545565b9050919050565b61157081611556565b82525050565b5f6020820190506115895f830184611567565b92915050565b5f80604083850312156115a5576115a461137a565b5b5f6115b285828601611394565b92505060206115c385828601611394565b9150509250929050565b7f4e487b71000000000000000000000000000000000000000000000000000000005f52602260045260245ffd5b5f600282049050600182168061161157607f821691505b602082108103611624576116236115cd565b5b50919050565b5f60408201905061163d5f830185611444565b61164a6020830184611444565b9392505050565b7f4e487b71000000000000000000000000000000000000000000000000000000005f52601160045260245ffd5b5f611688826113a8565b9150611693836113a8565b92508282039050818111156116ab576116aa611651565b5b92915050565b5f6116bb826113a8565b91506116c6836113a8565b92508282019050808211156116de576116dd611651565b5b92915050565b7f4f6e6c792074686520636f6e74726163742063616e206d696e7420746f6b656e5f8201527f7300000000000000000000000000000000000000000000000000000000000000602082015250565b5f61173e602183611282565b9150611749826116e4565b604082019050919050565b5f6020820190508181035f83015261176b81611732565b9050919050565b7f496e697469616c206d696e74696e67206973206f7665720000000000000000005f82015250565b5f6117a6601783611282565b91506117b182611772565b602082019050919050565b5f6020820190508181035f8301526117d38161179a565b9050919050565b7f4f6e6c792074686520636f6e74726163742063616e20626c6f636b206d696e745f8201527f696e670000000000000000000000000000000000000000000000000000000000602082015250565b5f611834602383611282565b915061183f826117da565b604082019050919050565b5f6020820190508181035f83015261186181611828565b9050919050565b7f4f6e6c792074686520636f6e74726163742063616e20726562617365000000005f82015250565b5f61189c601c83611282565b91506118a782611868565b602082019050919050565b5f6020820190508181035f8301526118c981611890565b9050919050565b5f815190506118de816113b1565b92915050565b5f602082840312156118f9576118f861137a565b5b5f611906848285016118d0565b91505092915050565b7f4e487b71000000000000000000000000000000000000000000000000000000005f52603260045260245ffd5b5f611946826113a8565b9150611951836113a8565b925082820261195f816113a8565b9150828204841483151761197657611975611651565b5b5092915050565b7f4e487b71000000000000000000000000000000000000000000000000000000005f52601260045260245ffd5b5f6119b4826113a8565b91506119bf836113a8565b9250826119cf576119ce61197d565b5b828204905092915050565b5f6119e4826113a8565b91507fffffffffffffffffffffffffffffffffffffffffffffffffffffffffffffffff8203611a1657611a15611651565b5b60018201905091905056fea2646970667358221220bee646cd2c83b01ff04c5eb28d1ca94214477a90948f1246dce4e58dd847af3164736f6c63430008150033",
  "immutableReferences": {},
  "source": "// SPDX-License-Identifier: MIT\npragma solidity >=0.4.22 <0.9.0;\n\nimport \"./IERC20.sol\";\nimport \"./PriceGenerator.sol\";\n\ncontract UniPGStablecoin is IERC20 {\n    /* This event is emitted when the amount of tokens (value) is sent from the from address to the to address.\n    In the case of minting new tokens, the transfer is usually from the 0x00..0000 address while in the case of burning tokens the transfer is to 0x00..0000.*/\n    event Transfer(address indexed from, address indexed to, uint256 value);\n    \n    /*This event is emitted when the amount of tokens (value) is approved by the owner to be used by the spender.*/\n    event Approval(\n        address indexed owner, address indexed spender, uint256 value\n    );\n\n    /*\n    ERC20InsufficientAllowance(spender, allowance, needed)\n\n    ERC20InvalidApprover(approver)\n\n    ERC20InvalidSpender(spender)\n\n    error RebaseInProgress();\n\n    error InitialMintingOver();\n\n    error InvalidSender(address sender);\n\n    error InvalidReceiver(address receiver);*/\n\n    error InsufficientBalance(uint requested, uint available);\n\n    PriceGenerator public priceGen;\n    \n    string public name;\n    string public symbol;\n    uint8 public decimals;\n    uint256 public totalSupply;\n    bool public isRebasing;\n    bool public initialMinting;\n    \n    address public minter;\n    mapping(address => uint256) public balanceOf;\n    address[] public walletAddresses;\n    mapping(address => mapping(address => uint256)) public allowance;\n     \n    constructor(string memory _name, string memory _symbol, uint8 _decimals, PriceGenerator _priceGenerator) {\n        name = _name;\n        symbol = _symbol;\n        decimals = _decimals;\n        priceGen = _priceGenerator;\n        minter = msg.sender;\n        isRebasing = false;\n        initialMinting = true;\n    }\n        \n    /* this is used only in the inital phase of the contract where tokens are given to initial backers.*/\n    function mint(address to, uint256 amount) external {\n        require(msg.sender == minter, \"Only the contract can mint tokens\");\n        require(initialMinting == true, \"Initial minting is over\");\n        walletAddresses.push(to);\n        _mint(to, amount);\n    }\n\n    function blockMinting() external {\n        require(msg.sender == minter, \"Only the contract can block minting\");\n        require(initialMinting == true, \"Initial minting is over\");\n        initialMinting = false;\n    }\n\n    function _mint(address to, uint256 amount) internal {\n        balanceOf[to] += amount;\n        totalSupply += amount;\n        emit Transfer(minter, to, amount);\n    }\n\n    function _burn(address from, uint256 amount) internal {\n        balanceOf[from] -= amount;\n        totalSupply -= amount;\n        emit Transfer(from, minter, amount);\n    }\n\n    /* this is used only in testing, the internal method should be called periodically each day */\n    function rebase() external {\n        require(msg.sender == minter, \"Only the contract can rebase\");\n        _rebase();\n    }\n\n    function _rebase() internal {\n        isRebasing = true;\n        uint price = priceGen.price();\n        \n        /*for loops are not defined for mappings, the workaround is that when a key is added to a mapping,\n        it also added to an array */\n        for(uint i = 0; i < walletAddresses.length; i++) {\n            /* fastest method, but using mint and burn triggers Transfer event\n            balanceOf[account] = balanceOf[account] * price; */\n            uint256 temp = balanceOf[walletAddresses[i]];\n            uint256 diff = temp - (temp*price/1 ether); \n            if(price > 1e18){\n                _mint(walletAddresses[i], diff);\n            }else if(price < 1e18){\n                _burn(walletAddresses[i], diff);\n            }else{\n                // do nothing\n            }\n        }\n        isRebasing = false;\n    }\n\n    function transfer(address recipient, uint256 amount)\n        external\n        returns (bool)\n    {   \n        require(isRebasing == false);\n        if (amount > balanceOf[msg.sender]){\n            revert InsufficientBalance({\n                requested: amount,\n                available: balanceOf[msg.sender]\n            });\n        }                \n        balanceOf[msg.sender] -= amount;\n        balanceOf[recipient] += amount;\n        walletAddresses.push(recipient);\n        emit Transfer(msg.sender, recipient, amount);\n        return true;        \n    }\n\n    function approve(address spender, uint256 amount) external returns (bool) {\n        allowance[msg.sender][spender] = amount;\n        emit Approval(msg.sender, spender, amount);\n        return true;\n    }\n\n    function transferFrom(address sender, address recipient, uint256 amount)\n        external\n        returns (bool)\n    {\n        if(isRebasing){\n            return false; \n        }else{\n            if (amount > balanceOf[msg.sender]){\n                revert InsufficientBalance({\n                    requested: amount,\n                    available: balanceOf[msg.sender]\n                });\n            }\n            allowance[sender][msg.sender] -= amount;\n            balanceOf[sender] -= amount;\n            balanceOf[recipient] += amount;\n            emit Transfer(sender, recipient, amount);\n            return true;\n        }\n    }\n}",
  "sourcePath": "C:\\Users\\utente\\Documents\\Uni\\magistrale\\data security\\progetto\\Stablecoin\\TruffleTest\\contracts\\UniPGStablecoin.sol",
  "compiler": {
    "name": "solc",
    "version": "0.8.21+commit.d9974bed.Emscripten.clang"
  },
  "schemaVersion": "3.4.16",
  "updatedAt": "2024-03-24T08:51:56.470Z",
  "networkType": "ethereum",
  "devdoc": {
    "kind": "dev",
    "methods": {},
    "version": 1
  },
  "userdoc": {
    "kind": "user",
    "methods": {},
    "version": 1
  }
}