{
  "contractName": "UniPGStablecoin",
  "abi": [
    {
      "inputs": [
        {
          "internalType": "string",
          "name": "_name",
          "type": "string"
        },
        {
          "internalType": "string",
          "name": "_symbol",
          "type": "string"
        },
        {
          "internalType": "uint8",
          "name": "_decimals",
          "type": "uint8"
        },
        {
          "internalType": "contract PriceGenerator",
          "name": "_priceGenerator",
          "type": "address"
        }
      ],
      "stateMutability": "nonpayable",
      "type": "constructor"
    },
    {
      "inputs": [
        {
          "internalType": "uint256",
          "name": "requested",
          "type": "uint256"
        },
        {
          "internalType": "uint256",
          "name": "available",
          "type": "uint256"
        }
      ],
      "name": "InsufficientBalance",
      "type": "error"
    },
    {
      "anonymous": false,
      "inputs": [
        {
          "indexed": true,
          "internalType": "address",
          "name": "owner",
          "type": "address"
        },
        {
          "indexed": true,
          "internalType": "address",
          "name": "spender",
          "type": "address"
        },
        {
          "indexed": false,
          "internalType": "uint256",
          "name": "value",
          "type": "uint256"
        }
      ],
      "name": "Approval",
      "type": "event"
    },
    {
      "anonymous": false,
      "inputs": [
        {
          "indexed": false,
          "internalType": "uint256",
          "name": "total",
          "type": "uint256"
        }
      ],
      "name": "Rebase",
      "type": "event"
    },
    {
      "anonymous": false,
      "inputs": [
        {
          "indexed": true,
          "internalType": "address",
          "name": "from",
          "type": "address"
        },
        {
          "indexed": true,
          "internalType": "address",
          "name": "to",
          "type": "address"
        },
        {
          "indexed": false,
          "internalType": "uint256",
          "name": "value",
          "type": "uint256"
        }
      ],
      "name": "Transfer",
      "type": "event"
    },
    {
      "inputs": [
        {
          "internalType": "address",
          "name": "",
          "type": "address"
        },
        {
          "internalType": "address",
          "name": "",
          "type": "address"
        }
      ],
      "name": "allowance",
      "outputs": [
        {
          "internalType": "uint256",
          "name": "",
          "type": "uint256"
        }
      ],
      "stateMutability": "view",
      "type": "function",
      "constant": true
    },
    {
      "inputs": [
        {
          "internalType": "address",
          "name": "",
          "type": "address"
        }
      ],
      "name": "balanceOf",
      "outputs": [
        {
          "internalType": "uint256",
          "name": "",
          "type": "uint256"
        }
      ],
      "stateMutability": "view",
      "type": "function",
      "constant": true
    },
    {
      "inputs": [],
      "name": "decimals",
      "outputs": [
        {
          "internalType": "uint8",
          "name": "",
          "type": "uint8"
        }
      ],
      "stateMutability": "view",
      "type": "function",
      "constant": true
    },
    {
      "inputs": [],
      "name": "initialMinting",
      "outputs": [
        {
          "internalType": "bool",
          "name": "",
          "type": "bool"
        }
      ],
      "stateMutability": "view",
      "type": "function",
      "constant": true
    },
    {
      "inputs": [],
      "name": "isRebasing",
      "outputs": [
        {
          "internalType": "bool",
          "name": "",
          "type": "bool"
        }
      ],
      "stateMutability": "view",
      "type": "function",
      "constant": true
    },
    {
      "inputs": [],
      "name": "minter",
      "outputs": [
        {
          "internalType": "address",
          "name": "",
          "type": "address"
        }
      ],
      "stateMutability": "view",
      "type": "function",
      "constant": true
    },
    {
      "inputs": [],
      "name": "name",
      "outputs": [
        {
          "internalType": "string",
          "name": "",
          "type": "string"
        }
      ],
      "stateMutability": "view",
      "type": "function",
      "constant": true
    },
    {
      "inputs": [],
      "name": "priceGen",
      "outputs": [
        {
          "internalType": "contract PriceGenerator",
          "name": "",
          "type": "address"
        }
      ],
      "stateMutability": "view",
      "type": "function",
      "constant": true
    },
    {
      "inputs": [],
      "name": "symbol",
      "outputs": [
        {
          "internalType": "string",
          "name": "",
          "type": "string"
        }
      ],
      "stateMutability": "view",
      "type": "function",
      "constant": true
    },
    {
      "inputs": [],
      "name": "totalSupply",
      "outputs": [
        {
          "internalType": "uint256",
          "name": "",
          "type": "uint256"
        }
      ],
      "stateMutability": "view",
      "type": "function",
      "constant": true
    },
    {
      "inputs": [
        {
          "internalType": "uint256",
          "name": "",
          "type": "uint256"
        }
      ],
      "name": "walletAddresses",
      "outputs": [
        {
          "internalType": "address",
          "name": "",
          "type": "address"
        }
      ],
      "stateMutability": "view",
      "type": "function",
      "constant": true
    },
    {
      "inputs": [
        {
          "internalType": "address",
          "name": "to",
          "type": "address"
        },
        {
          "internalType": "uint256",
          "name": "amount",
          "type": "uint256"
        }
      ],
      "name": "mint",
      "outputs": [],
      "stateMutability": "nonpayable",
      "type": "function"
    },
    {
      "inputs": [],
      "name": "blockMinting",
      "outputs": [],
      "stateMutability": "nonpayable",
      "type": "function"
    },
    {
      "inputs": [],
      "name": "rebase",
      "outputs": [],
      "stateMutability": "nonpayable",
      "type": "function"
    },
    {
      "inputs": [
        {
          "internalType": "address",
          "name": "recipient",
          "type": "address"
        },
        {
          "internalType": "uint256",
          "name": "amount",
          "type": "uint256"
        }
      ],
      "name": "transfer",
      "outputs": [
        {
          "internalType": "bool",
          "name": "",
          "type": "bool"
        }
      ],
      "stateMutability": "nonpayable",
      "type": "function"
    },
    {
      "inputs": [
        {
          "internalType": "address",
          "name": "spender",
          "type": "address"
        },
        {
          "internalType": "uint256",
          "name": "amount",
          "type": "uint256"
        }
      ],
      "name": "approve",
      "outputs": [
        {
          "internalType": "bool",
          "name": "",
          "type": "bool"
        }
      ],
      "stateMutability": "nonpayable",
      "type": "function"
    },
    {
      "inputs": [
        {
          "internalType": "address",
          "name": "sender",
          "type": "address"
        },
        {
          "internalType": "address",
          "name": "recipient",
          "type": "address"
        },
        {
          "internalType": "uint256",
          "name": "amount",
          "type": "uint256"
        }
      ],
      "name": "transferFrom",
      "outputs": [
        {
          "internalType": "bool",
          "name": "",
          "type": "bool"
        }
      ],
      "stateMutability": "nonpayable",
      "type": "function"
    }
  ],
  "bytecode": "0x608060405234801562000010575f80fd5b506040516200218838038062002188833981810160405281019062000036919062000366565b83600190816200004791906200064a565b5082600290816200005991906200064a565b508160035f6101000a81548160ff021916908360ff160217905550805f806101000a81548173ffffffffffffffffffffffffffffffffffffffff021916908373ffffffffffffffffffffffffffffffffffffffff16021790555033600560026101000a81548173ffffffffffffffffffffffffffffffffffffffff021916908373ffffffffffffffffffffffffffffffffffffffff1602179055505f60055f6101000a81548160ff0219169083151502179055506001600560016101000a81548160ff021916908315150217905550505050506200072e565b5f604051905090565b5f80fd5b5f80fd5b5f80fd5b5f80fd5b5f601f19601f8301169050919050565b7f4e487b71000000000000000000000000000000000000000000000000000000005f52604160045260245ffd5b62000193826200014b565b810181811067ffffffffffffffff82111715620001b557620001b46200015b565b5b80604052505050565b5f620001c962000132565b9050620001d7828262000188565b919050565b5f67ffffffffffffffff821115620001f957620001f86200015b565b5b62000204826200014b565b9050602081019050919050565b5f5b838110156200023057808201518184015260208101905062000213565b5f8484015250505050565b5f620002516200024b84620001dc565b620001be565b90508281526020810184848401111562000270576200026f62000147565b5b6200027d84828562000211565b509392505050565b5f82601f8301126200029c576200029b62000143565b5b8151620002ae8482602086016200023b565b91505092915050565b5f60ff82169050919050565b620002ce81620002b7565b8114620002d9575f80fd5b50565b5f81519050620002ec81620002c3565b92915050565b5f73ffffffffffffffffffffffffffffffffffffffff82169050919050565b5f6200031d82620002f2565b9050919050565b5f620003308262000311565b9050919050565b620003428162000324565b81146200034d575f80fd5b50565b5f81519050620003608162000337565b92915050565b5f805f80608085870312156200038157620003806200013b565b5b5f85015167ffffffffffffffff811115620003a157620003a06200013f565b5b620003af8782880162000285565b945050602085015167ffffffffffffffff811115620003d357620003d26200013f565b5b620003e18782880162000285565b9350506040620003f487828801620002dc565b9250506060620004078782880162000350565b91505092959194509250565b5f81519050919050565b7f4e487b71000000000000000000000000000000000000000000000000000000005f52602260045260245ffd5b5f60028204905060018216806200046257607f821691505b6020821081036200047857620004776200041d565b5b50919050565b5f819050815f5260205f209050919050565b5f6020601f8301049050919050565b5f82821b905092915050565b5f60088302620004dc7fffffffffffffffffffffffffffffffffffffffffffffffffffffffffffffffff826200049f565b620004e886836200049f565b95508019841693508086168417925050509392505050565b5f819050919050565b5f819050919050565b5f620005326200052c620005268462000500565b62000509565b62000500565b9050919050565b5f819050919050565b6200054d8362000512565b620005656200055c8262000539565b848454620004ab565b825550505050565b5f90565b6200057b6200056d565b6200058881848462000542565b505050565b5b81811015620005af57620005a35f8262000571565b6001810190506200058e565b5050565b601f821115620005fe57620005c8816200047e565b620005d38462000490565b81016020851015620005e3578190505b620005fb620005f28562000490565b8301826200058d565b50505b505050565b5f82821c905092915050565b5f620006205f198460080262000603565b1980831691505092915050565b5f6200063a83836200060f565b9150826002028217905092915050565b620006558262000413565b67ffffffffffffffff8111156200067157620006706200015b565b5b6200067d82546200044a565b6200068a828285620005b3565b5f60209050601f831160018114620006c0575f8415620006ab578287015190505b620006b785826200062d565b86555062000726565b601f198416620006d0866200047e565b5f5b82811015620006f957848901518255600182019150602085019450602081019050620006d2565b8683101562000719578489015162000715601f8916826200060f565b8355505b6001600288020188555050505b505050505050565b611a4c806200073c5f395ff3fe608060405234801561000f575f80fd5b5060043610610109575f3560e01c806340c10f19116100a05780639d2e42931161006f5780639d2e4293146102bb578063a9059cbb146102c5578063a9d5c3ac146102f5578063af14052c14610313578063dd62ed3e1461031d57610109565b806340c10f19146102335780635dfba1151461024f57806370a082311461026d57806395d89b411461029d57610109565b80631469d5d4116100dc5780631469d5d41461019757806318160ddd146101c757806323b872dd146101e5578063313ce5671461021557610109565b80630491739f1461010d57806306fdde031461012b5780630754617214610149578063095ea7b314610167575b5f80fd5b61011561034d565b6040516101229190611254565b60405180910390f35b610133610360565b60405161014091906112f7565b60405180910390f35b6101516103ec565b60405161015e9190611356565b60405180910390f35b610181600480360381019061017c91906113d0565b610412565b60405161018e9190611254565b60405180910390f35b6101b160048036038101906101ac919061140e565b6104ff565b6040516101be9190611356565b60405180910390f35b6101cf61053a565b6040516101dc9190611448565b60405180910390f35b6101ff60048036038101906101fa9190611461565b610540565b60405161020c9190611254565b60405180910390f35b61021d6107c3565b60405161022a91906114cc565b60405180910390f35b61024d600480360381019061024891906113d0565b6107d5565b005b610257610929565b6040516102649190611254565b60405180910390f35b610287600480360381019061028291906114e5565b61093b565b6040516102949190611448565b60405180910390f35b6102a5610950565b6040516102b291906112f7565b60405180910390f35b6102c36109dc565b005b6102df60048036038101906102da91906113d0565b610ade565b6040516102ec9190611254565b60405180910390f35b6102fd610d32565b60405161030a919061156b565b60405180910390f35b61031b610d55565b005b61033760048036038101906103329190611584565b610e28565b6040516103449190611448565b60405180910390f35b600560019054906101000a900460ff1681565b6001805461036d906115ef565b80601f0160208091040260200160405190810160405280929190818152602001828054610399906115ef565b80156103e45780601f106103bb576101008083540402835291602001916103e4565b820191905f5260205f20905b8154815290600101906020018083116103c757829003601f168201915b505050505081565b600560029054906101000a900473ffffffffffffffffffffffffffffffffffffffff1681565b5f8160085f3373ffffffffffffffffffffffffffffffffffffffff1673ffffffffffffffffffffffffffffffffffffffff1681526020019081526020015f205f8573ffffffffffffffffffffffffffffffffffffffff1673ffffffffffffffffffffffffffffffffffffffff1681526020019081526020015f20819055508273ffffffffffffffffffffffffffffffffffffffff163373ffffffffffffffffffffffffffffffffffffffff167f8c5be1e5ebec7d5bd14f71427d1e84f3dd0314c0f7b2291e5b200ac8c7c3b925846040516104ed9190611448565b60405180910390a36001905092915050565b6007818154811061050e575f80fd5b905f5260205f20015f915054906101000a900473ffffffffffffffffffffffffffffffffffffffff1681565b60045481565b5f60055f9054906101000a900460ff161561055d575f90506107bc565b60065f3373ffffffffffffffffffffffffffffffffffffffff1673ffffffffffffffffffffffffffffffffffffffff1681526020019081526020015f205482111561061e578160065f3373ffffffffffffffffffffffffffffffffffffffff1673ffffffffffffffffffffffffffffffffffffffff1681526020019081526020015f20546040517fcf47918100000000000000000000000000000000000000000000000000000000815260040161061592919061161f565b60405180910390fd5b8160085f8673ffffffffffffffffffffffffffffffffffffffff1673ffffffffffffffffffffffffffffffffffffffff1681526020019081526020015f205f3373ffffffffffffffffffffffffffffffffffffffff1673ffffffffffffffffffffffffffffffffffffffff1681526020019081526020015f205f8282546106a59190611673565b925050819055508160065f8673ffffffffffffffffffffffffffffffffffffffff1673ffffffffffffffffffffffffffffffffffffffff1681526020019081526020015f205f8282546106f89190611673565b925050819055508160065f8573ffffffffffffffffffffffffffffffffffffffff1673ffffffffffffffffffffffffffffffffffffffff1681526020019081526020015f205f82825461074b91906116a6565b925050819055508273ffffffffffffffffffffffffffffffffffffffff168473ffffffffffffffffffffffffffffffffffffffff167fddf252ad1be2c89b69c2b068fc378daa952ba7f163c4a11628f55a4df523b3ef846040516107af9190611448565b60405180910390a3600190505b9392505050565b60035f9054906101000a900460ff1681565b600560029054906101000a900473ffffffffffffffffffffffffffffffffffffffff1673ffffffffffffffffffffffffffffffffffffffff163373ffffffffffffffffffffffffffffffffffffffff1614610865576040517f08c379a000000000000000000000000000000000000000000000000000000000815260040161085c90611749565b60405180910390fd5b60011515600560019054906101000a900460ff161515146108bb576040517f08c379a00000000000000000000000000000000000000000000000000000000081526004016108b2906117b1565b60405180910390fd5b600782908060018154018082558091505060019003905f5260205f20015f9091909190916101000a81548173ffffffffffffffffffffffffffffffffffffffff021916908373ffffffffffffffffffffffffffffffffffffffff1602179055506109258282610e48565b5050565b60055f9054906101000a900460ff1681565b6006602052805f5260405f205f915090505481565b6002805461095d906115ef565b80601f0160208091040260200160405190810160405280929190818152602001828054610989906115ef565b80156109d45780601f106109ab576101008083540402835291602001916109d4565b820191905f5260205f20905b8154815290600101906020018083116109b757829003601f168201915b505050505081565b600560029054906101000a900473ffffffffffffffffffffffffffffffffffffffff1673ffffffffffffffffffffffffffffffffffffffff163373ffffffffffffffffffffffffffffffffffffffff1614610a6c576040517f08c379a0000000000000000000000000000000000000000000000000000000008152600401610a639061183f565b60405180910390fd5b60011515600560019054906101000a900460ff16151514610ac2576040517f08c379a0000000000000000000000000000000000000000000000000000000008152600401610ab9906117b1565b60405180910390fd5b5f600560016101000a81548160ff021916908315150217905550565b5f80151560055f9054906101000a900460ff16151514610afc575f80fd5b60065f3373ffffffffffffffffffffffffffffffffffffffff1673ffffffffffffffffffffffffffffffffffffffff1681526020019081526020015f2054821115610bbd578160065f3373ffffffffffffffffffffffffffffffffffffffff1673ffffffffffffffffffffffffffffffffffffffff1681526020019081526020015f20546040517fcf479181000000000000000000000000000000000000000000000000000000008152600401610bb492919061161f565b60405180910390fd5b8160065f3373ffffffffffffffffffffffffffffffffffffffff1673ffffffffffffffffffffffffffffffffffffffff1681526020019081526020015f205f828254610c099190611673565b925050819055508160065f8573ffffffffffffffffffffffffffffffffffffffff1673ffffffffffffffffffffffffffffffffffffffff1681526020019081526020015f205f828254610c5c91906116a6565b92505081905550600783908060018154018082558091505060019003905f5260205f20015f9091909190916101000a81548173ffffffffffffffffffffffffffffffffffffffff021916908373ffffffffffffffffffffffffffffffffffffffff1602179055508273ffffffffffffffffffffffffffffffffffffffff163373ffffffffffffffffffffffffffffffffffffffff167fddf252ad1be2c89b69c2b068fc378daa952ba7f163c4a11628f55a4df523b3ef84604051610d209190611448565b60405180910390a36001905092915050565b5f8054906101000a900473ffffffffffffffffffffffffffffffffffffffff1681565b600560029054906101000a900473ffffffffffffffffffffffffffffffffffffffff1673ffffffffffffffffffffffffffffffffffffffff163373ffffffffffffffffffffffffffffffffffffffff1614610de5576040517f08c379a0000000000000000000000000000000000000000000000000000000008152600401610ddc906118a7565b60405180910390fd5b610ded610f1c565b7fafae32ce2847c13a56ab802c034c27d3c19f1d61be48c424c5df134145cd44d0600454604051610e1e9190611448565b60405180910390a1565b6008602052815f5260405f20602052805f5260405f205f91509150505481565b8060065f8473ffffffffffffffffffffffffffffffffffffffff1673ffffffffffffffffffffffffffffffffffffffff1681526020019081526020015f205f828254610e9491906116a6565b925050819055508060045f828254610eac91906116a6565b925050819055508173ffffffffffffffffffffffffffffffffffffffff163073ffffffffffffffffffffffffffffffffffffffff167fddf252ad1be2c89b69c2b068fc378daa952ba7f163c4a11628f55a4df523b3ef83604051610f109190611448565b60405180910390a35050565b600160055f6101000a81548160ff0219169083151502179055505f805f9054906101000a900473ffffffffffffffffffffffffffffffffffffffff1673ffffffffffffffffffffffffffffffffffffffff1663a035b1fe6040518163ffffffff1660e01b8152600401602060405180830381865afa158015610fa0573d5f803e3d5ffd5b505050506040513d601f19601f82011682018060405250810190610fc491906118d9565b90505f5b600780549050811015611149575f60065f60078481548110610fed57610fec611904565b5b905f5260205f20015f9054906101000a900473ffffffffffffffffffffffffffffffffffffffff1673ffffffffffffffffffffffffffffffffffffffff1673ffffffffffffffffffffffffffffffffffffffff1681526020019081526020015f205490505f670de0b6b3a764000084836110679190611931565b611071919061199f565b8261107c9190611673565b9050670de0b6b3a76400008411156110d8576110d3600784815481106110a5576110a4611904565b5b905f5260205f20015f9054906101000a900473ffffffffffffffffffffffffffffffffffffffff1682610e48565b611134565b670de0b6b3a76400008410156111325761112d600784815481106110ff576110fe611904565b5b905f5260205f20015f9054906101000a900473ffffffffffffffffffffffffffffffffffffffff1682611166565b611133565b5b5b50508080611141906119cf565b915050610fc8565b505f60055f6101000a81548160ff02191690831515021790555050565b8060065f8473ffffffffffffffffffffffffffffffffffffffff1673ffffffffffffffffffffffffffffffffffffffff1681526020019081526020015f205f8282546111b29190611673565b925050819055508060045f8282546111ca9190611673565b925050819055503073ffffffffffffffffffffffffffffffffffffffff168273ffffffffffffffffffffffffffffffffffffffff167fddf252ad1be2c89b69c2b068fc378daa952ba7f163c4a11628f55a4df523b3ef8360405161122e9190611448565b60405180910390a35050565b5f8115159050919050565b61124e8161123a565b82525050565b5f6020820190506112675f830184611245565b92915050565b5f81519050919050565b5f82825260208201905092915050565b5f5b838110156112a4578082015181840152602081019050611289565b5f8484015250505050565b5f601f19601f8301169050919050565b5f6112c98261126d565b6112d38185611277565b93506112e3818560208601611287565b6112ec816112af565b840191505092915050565b5f6020820190508181035f83015261130f81846112bf565b905092915050565b5f73ffffffffffffffffffffffffffffffffffffffff82169050919050565b5f61134082611317565b9050919050565b61135081611336565b82525050565b5f6020820190506113695f830184611347565b92915050565b5f80fd5b61137c81611336565b8114611386575f80fd5b50565b5f8135905061139781611373565b92915050565b5f819050919050565b6113af8161139d565b81146113b9575f80fd5b50565b5f813590506113ca816113a6565b92915050565b5f80604083850312156113e6576113e561136f565b5b5f6113f385828601611389565b9250506020611404858286016113bc565b9150509250929050565b5f602082840312156114235761142261136f565b5b5f611430848285016113bc565b91505092915050565b6114428161139d565b82525050565b5f60208201905061145b5f830184611439565b92915050565b5f805f606084860312156114785761147761136f565b5b5f61148586828701611389565b935050602061149686828701611389565b92505060406114a7868287016113bc565b9150509250925092565b5f60ff82169050919050565b6114c6816114b1565b82525050565b5f6020820190506114df5f8301846114bd565b92915050565b5f602082840312156114fa576114f961136f565b5b5f61150784828501611389565b91505092915050565b5f819050919050565b5f61153361152e61152984611317565b611510565b611317565b9050919050565b5f61154482611519565b9050919050565b5f6115558261153a565b9050919050565b6115658161154b565b82525050565b5f60208201905061157e5f83018461155c565b92915050565b5f806040838503121561159a5761159961136f565b5b5f6115a785828601611389565b92505060206115b885828601611389565b9150509250929050565b7f4e487b71000000000000000000000000000000000000000000000000000000005f52602260045260245ffd5b5f600282049050600182168061160657607f821691505b602082108103611619576116186115c2565b5b50919050565b5f6040820190506116325f830185611439565b61163f6020830184611439565b9392505050565b7f4e487b71000000000000000000000000000000000000000000000000000000005f52601160045260245ffd5b5f61167d8261139d565b91506116888361139d565b92508282039050818111156116a05761169f611646565b5b92915050565b5f6116b08261139d565b91506116bb8361139d565b92508282019050808211156116d3576116d2611646565b5b92915050565b7f4f6e6c792074686520636f6e74726163742063616e206d696e7420746f6b656e5f8201527f7300000000000000000000000000000000000000000000000000000000000000602082015250565b5f611733602183611277565b915061173e826116d9565b604082019050919050565b5f6020820190508181035f83015261176081611727565b9050919050565b7f496e697469616c206d696e74696e67206973206f7665720000000000000000005f82015250565b5f61179b601783611277565b91506117a682611767565b602082019050919050565b5f6020820190508181035f8301526117c88161178f565b9050919050565b7f4f6e6c792074686520636f6e74726163742063616e20626c6f636b206d696e745f8201527f696e670000000000000000000000000000000000000000000000000000000000602082015250565b5f611829602383611277565b9150611834826117cf565b604082019050919050565b5f6020820190508181035f8301526118568161181d565b9050919050565b7f4f6e6c792074686520636f6e74726163742063616e20726562617365000000005f82015250565b5f611891601c83611277565b915061189c8261185d565b602082019050919050565b5f6020820190508181035f8301526118be81611885565b9050919050565b5f815190506118d3816113a6565b92915050565b5f602082840312156118ee576118ed61136f565b5b5f6118fb848285016118c5565b91505092915050565b7f4e487b71000000000000000000000000000000000000000000000000000000005f52603260045260245ffd5b5f61193b8261139d565b91506119468361139d565b92508282026119548161139d565b9150828204841483151761196b5761196a611646565b5b5092915050565b7f4e487b71000000000000000000000000000000000000000000000000000000005f52601260045260245ffd5b5f6119a98261139d565b91506119b48361139d565b9250826119c4576119c3611972565b5b828204905092915050565b5f6119d98261139d565b91507fffffffffffffffffffffffffffffffffffffffffffffffffffffffffffffffff8203611a0b57611a0a611646565b5b60018201905091905056fea264697066735822122069e6121752ac510397b8a81a7288009e0862dfe87ce9536ed992d98ef8bce2c164736f6c63430008150033",
  "immutableReferences": {},
  "source": "// SPDX-License-Identifier: MIT\npragma solidity >=0.4.22 <0.9.0;\n\nimport \"./IERC20.sol\";\nimport \"./PriceGenerator.sol\";\n\ncontract UniPGStablecoin is IERC20 {\n    /* This event is emitted when the amount of tokens (value) is sent from the from address to the to address.\n    In the case of minting new tokens, the transfer is usually from the 0x00..0000 address while in the case of burning tokens the transfer is to 0x00..0000.*/\n    event Transfer(address indexed from, address indexed to, uint256 value);\n    \n    /*This event is emitted when the amount of tokens (value) is approved by the owner to be used by the spender.*/\n    event Approval(\n        address indexed owner, address indexed spender, uint256 value\n    );\n\n    event Rebase(uint256 total);\n\n    /*\n    ERC20InsufficientAllowance(spender, allowance, needed)\n\n    ERC20InvalidApprover(approver)\n\n    ERC20InvalidSpender(spender)\n\n    error RebaseInProgress();\n\n    error InitialMintingOver();\n\n    error InvalidSender(address sender);\n\n    error InvalidReceiver(address receiver);*/\n\n    error InsufficientBalance(uint requested, uint available);\n\n    PriceGenerator public priceGen;\n    \n    string public name;\n    string public symbol;\n    uint8 public decimals;\n    uint256 public totalSupply;\n    bool public isRebasing;\n    bool public initialMinting;\n    \n    address public minter;\n    mapping(address => uint256) public balanceOf;\n    address[] public walletAddresses;\n    mapping(address => mapping(address => uint256)) public allowance;\n     \n    constructor(string memory _name, string memory _symbol, uint8 _decimals, PriceGenerator _priceGenerator) {\n        name = _name;\n        symbol = _symbol;\n        decimals = _decimals;\n        priceGen = _priceGenerator;\n        minter = msg.sender;\n        isRebasing = false;\n        initialMinting = true;\n    }\n        \n    /* this is used only in the inital phase of the contract where tokens are given to initial backers.*/\n    function mint(address to, uint256 amount) external {\n        require(msg.sender == minter, \"Only the contract can mint tokens\");\n        require(initialMinting == true, \"Initial minting is over\");\n        walletAddresses.push(to);\n        _mint(to, amount);\n    }\n\n    function blockMinting() external {\n        require(msg.sender == minter, \"Only the contract can block minting\");\n        require(initialMinting == true, \"Initial minting is over\");\n        initialMinting = false;\n    }\n\n    function _mint(address to, uint256 amount) internal {\n        balanceOf[to] += amount;\n        totalSupply += amount;\n        emit Transfer(address(this), to, amount);\n    }\n\n    function _burn(address from, uint256 amount) internal {\n        balanceOf[from] -= amount;\n        totalSupply -= amount;\n        emit Transfer(from, address(this), amount);\n    }\n\n    /* this is used only in testing, the internal method should be called periodically each day */\n    function rebase() external {\n        require(msg.sender == minter, \"Only the contract can rebase\");\n        _rebase();\n        emit Rebase(totalSupply);\n    }\n\n    function _rebase() internal {\n        isRebasing = true;\n        uint price = priceGen.price(); \n        \n        /*for loops are not defined for mappings, the workaround is that when a key is added to a mapping,\n        it also added to an array */\n        for(uint i = 0; i < walletAddresses.length; i++) {\n            /* fastest method, but using mint and burn triggers Transfer event\n            balanceOf[account] = balanceOf[account] * price; */\n            uint256 temp = balanceOf[walletAddresses[i]];\n            uint256 diff = temp - (temp*price/1 ether); // too much approximation maybe\n            if(price > 1e18){\n                _mint(walletAddresses[i], diff);\n            }else if(price < 1e18){\n                _burn(walletAddresses[i], diff);\n            }else{\n                // do nothing\n            }\n        }\n        isRebasing = false;\n    }\n\n    function transfer(address recipient, uint256 amount)\n        external\n        returns (bool)\n    {   \n        require(isRebasing == false);\n        if (amount > balanceOf[msg.sender]){\n            revert InsufficientBalance({\n                requested: amount,\n                available: balanceOf[msg.sender]\n            });\n        }                \n        balanceOf[msg.sender] -= amount;\n        balanceOf[recipient] += amount;\n        walletAddresses.push(recipient);\n        emit Transfer(msg.sender, recipient, amount);\n        return true;        \n    }\n\n    function approve(address spender, uint256 amount) external returns (bool) {\n        allowance[msg.sender][spender] = amount;\n        emit Approval(msg.sender, spender, amount);\n        return true;\n    }\n\n    function transferFrom(address sender, address recipient, uint256 amount)\n        external\n        returns (bool)\n    {\n        if(isRebasing){\n            return false; \n        }else{\n            if (amount > balanceOf[msg.sender]){\n                revert InsufficientBalance({\n                    requested: amount,\n                    available: balanceOf[msg.sender]\n                });\n            }\n            allowance[sender][msg.sender] -= amount;\n            balanceOf[sender] -= amount;\n            balanceOf[recipient] += amount;\n            emit Transfer(sender, recipient, amount);\n            return true;\n        }\n    }\n}",
  "sourcePath": "C:\\Users\\utente\\Documents\\Uni\\magistrale\\data security\\progetto\\Stablecoin\\TruffleTest\\contracts\\UniPGStablecoin.sol",
  "compiler": {
    "name": "solc",
    "version": "0.8.21+commit.d9974bed.Emscripten.clang"
  },
  "schemaVersion": "3.4.16",
  "updatedAt": "2024-03-27T18:03:21.649Z",
  "networkType": "ethereum",
  "devdoc": {
    "kind": "dev",
    "methods": {},
    "version": 1
  },
  "userdoc": {
    "kind": "user",
    "methods": {},
    "version": 1
  }
}