{
  "contractName": "UniPGStablecoin",
  "abi": [
    {
      "inputs": [
        {
          "internalType": "string",
          "name": "_name",
          "type": "string"
        },
        {
          "internalType": "string",
          "name": "_symbol",
          "type": "string"
        },
        {
          "internalType": "uint8",
          "name": "_decimals",
          "type": "uint8"
        }
      ],
      "stateMutability": "nonpayable",
      "type": "constructor"
    },
    {
      "inputs": [],
      "name": "InitialMintingOver",
      "type": "error"
    },
    {
      "inputs": [
        {
          "internalType": "uint256",
          "name": "requested",
          "type": "uint256"
        },
        {
          "internalType": "uint256",
          "name": "available",
          "type": "uint256"
        }
      ],
      "name": "InsufficientBalance",
      "type": "error"
    },
    {
      "inputs": [
        {
          "internalType": "address",
          "name": "receiver",
          "type": "address"
        }
      ],
      "name": "InvalidReceiver",
      "type": "error"
    },
    {
      "inputs": [
        {
          "internalType": "address",
          "name": "sender",
          "type": "address"
        }
      ],
      "name": "InvalidSender",
      "type": "error"
    },
    {
      "inputs": [],
      "name": "RebaseInProgress",
      "type": "error"
    },
    {
      "anonymous": false,
      "inputs": [
        {
          "indexed": true,
          "internalType": "address",
          "name": "owner",
          "type": "address"
        },
        {
          "indexed": true,
          "internalType": "address",
          "name": "spender",
          "type": "address"
        },
        {
          "indexed": false,
          "internalType": "uint256",
          "name": "value",
          "type": "uint256"
        }
      ],
      "name": "Approval",
      "type": "event"
    },
    {
      "anonymous": false,
      "inputs": [
        {
          "indexed": true,
          "internalType": "address",
          "name": "from",
          "type": "address"
        },
        {
          "indexed": true,
          "internalType": "address",
          "name": "to",
          "type": "address"
        },
        {
          "indexed": false,
          "internalType": "uint256",
          "name": "value",
          "type": "uint256"
        }
      ],
      "name": "Transfer",
      "type": "event"
    },
    {
      "inputs": [
        {
          "internalType": "address",
          "name": "",
          "type": "address"
        },
        {
          "internalType": "address",
          "name": "",
          "type": "address"
        }
      ],
      "name": "allowance",
      "outputs": [
        {
          "internalType": "uint256",
          "name": "",
          "type": "uint256"
        }
      ],
      "stateMutability": "view",
      "type": "function"
    },
    {
      "inputs": [
        {
          "internalType": "address",
          "name": "",
          "type": "address"
        }
      ],
      "name": "balanceOf",
      "outputs": [
        {
          "internalType": "uint256",
          "name": "",
          "type": "uint256"
        }
      ],
      "stateMutability": "view",
      "type": "function"
    },
    {
      "inputs": [],
      "name": "decimals",
      "outputs": [
        {
          "internalType": "uint8",
          "name": "",
          "type": "uint8"
        }
      ],
      "stateMutability": "view",
      "type": "function"
    },
    {
      "inputs": [],
      "name": "initialMinting",
      "outputs": [
        {
          "internalType": "bool",
          "name": "",
          "type": "bool"
        }
      ],
      "stateMutability": "view",
      "type": "function"
    },
    {
      "inputs": [],
      "name": "isRebasing",
      "outputs": [
        {
          "internalType": "bool",
          "name": "",
          "type": "bool"
        }
      ],
      "stateMutability": "view",
      "type": "function"
    },
    {
      "inputs": [],
      "name": "name",
      "outputs": [
        {
          "internalType": "string",
          "name": "",
          "type": "string"
        }
      ],
      "stateMutability": "view",
      "type": "function"
    },
    {
      "inputs": [],
      "name": "symbol",
      "outputs": [
        {
          "internalType": "string",
          "name": "",
          "type": "string"
        }
      ],
      "stateMutability": "view",
      "type": "function"
    },
    {
      "inputs": [],
      "name": "totalSupply",
      "outputs": [
        {
          "internalType": "uint256",
          "name": "",
          "type": "uint256"
        }
      ],
      "stateMutability": "view",
      "type": "function"
    },
    {
      "inputs": [
        {
          "internalType": "uint256",
          "name": "",
          "type": "uint256"
        }
      ],
      "name": "walletAddresses",
      "outputs": [
        {
          "internalType": "address",
          "name": "",
          "type": "address"
        }
      ],
      "stateMutability": "view",
      "type": "function"
    },
    {
      "inputs": [
        {
          "internalType": "address",
          "name": "to",
          "type": "address"
        },
        {
          "internalType": "uint256",
          "name": "amount",
          "type": "uint256"
        }
      ],
      "name": "mint",
      "outputs": [],
      "stateMutability": "nonpayable",
      "type": "function"
    },
    {
      "inputs": [],
      "name": "blockMinting",
      "outputs": [],
      "stateMutability": "nonpayable",
      "type": "function"
    },
    {
      "inputs": [
        {
          "internalType": "address",
          "name": "recipient",
          "type": "address"
        },
        {
          "internalType": "uint256",
          "name": "amount",
          "type": "uint256"
        }
      ],
      "name": "transfer",
      "outputs": [
        {
          "internalType": "bool",
          "name": "",
          "type": "bool"
        }
      ],
      "stateMutability": "nonpayable",
      "type": "function"
    },
    {
      "inputs": [
        {
          "internalType": "address",
          "name": "spender",
          "type": "address"
        },
        {
          "internalType": "uint256",
          "name": "amount",
          "type": "uint256"
        }
      ],
      "name": "approve",
      "outputs": [
        {
          "internalType": "bool",
          "name": "",
          "type": "bool"
        }
      ],
      "stateMutability": "nonpayable",
      "type": "function"
    },
    {
      "inputs": [
        {
          "internalType": "address",
          "name": "sender",
          "type": "address"
        },
        {
          "internalType": "address",
          "name": "recipient",
          "type": "address"
        },
        {
          "internalType": "uint256",
          "name": "amount",
          "type": "uint256"
        }
      ],
      "name": "transferFrom",
      "outputs": [
        {
          "internalType": "bool",
          "name": "",
          "type": "bool"
        }
      ],
      "stateMutability": "nonpayable",
      "type": "function"
    }
  ],
  "bytecode": "0x608060405234801562000010575f80fd5b506040516200170138038062001701833981810160405281019062000036919062000270565b82600590816200004791906200053e565b5081600690816200005991906200053e565b508060075f6101000a81548160ff021916908360ff1602179055505f60015f6101000a81548160ff02191690831515021790555060018060016101000a81548160ff02191690831515021790555050505062000622565b5f604051905090565b5f80fd5b5f80fd5b5f80fd5b5f80fd5b5f601f19601f8301169050919050565b7f4e487b71000000000000000000000000000000000000000000000000000000005f52604160045260245ffd5b6200011182620000c9565b810181811067ffffffffffffffff82111715620001335762000132620000d9565b5b80604052505050565b5f62000147620000b0565b905062000155828262000106565b919050565b5f67ffffffffffffffff821115620001775762000176620000d9565b5b6200018282620000c9565b9050602081019050919050565b5f5b83811015620001ae57808201518184015260208101905062000191565b5f8484015250505050565b5f620001cf620001c9846200015a565b6200013c565b905082815260208101848484011115620001ee57620001ed620000c5565b5b620001fb8482856200018f565b509392505050565b5f82601f8301126200021a5762000219620000c1565b5b81516200022c848260208601620001b9565b91505092915050565b5f60ff82169050919050565b6200024c8162000235565b811462000257575f80fd5b50565b5f815190506200026a8162000241565b92915050565b5f805f606084860312156200028a5762000289620000b9565b5b5f84015167ffffffffffffffff811115620002aa57620002a9620000bd565b5b620002b88682870162000203565b935050602084015167ffffffffffffffff811115620002dc57620002db620000bd565b5b620002ea8682870162000203565b9250506040620002fd868287016200025a565b9150509250925092565b5f81519050919050565b7f4e487b71000000000000000000000000000000000000000000000000000000005f52602260045260245ffd5b5f60028204905060018216806200035657607f821691505b6020821081036200036c576200036b62000311565b5b50919050565b5f819050815f5260205f209050919050565b5f6020601f8301049050919050565b5f82821b905092915050565b5f60088302620003d07fffffffffffffffffffffffffffffffffffffffffffffffffffffffffffffffff8262000393565b620003dc868362000393565b95508019841693508086168417925050509392505050565b5f819050919050565b5f819050919050565b5f62000426620004206200041a84620003f4565b620003fd565b620003f4565b9050919050565b5f819050919050565b620004418362000406565b6200045962000450826200042d565b8484546200039f565b825550505050565b5f90565b6200046f62000461565b6200047c81848462000436565b505050565b5b81811015620004a357620004975f8262000465565b60018101905062000482565b5050565b601f821115620004f257620004bc8162000372565b620004c78462000384565b81016020851015620004d7578190505b620004ef620004e68562000384565b83018262000481565b50505b505050565b5f82821c905092915050565b5f620005145f1984600802620004f7565b1980831691505092915050565b5f6200052e838362000503565b9150826002028217905092915050565b620005498262000307565b67ffffffffffffffff811115620005655762000564620000d9565b5b6200057182546200033e565b6200057e828285620004a7565b5f60209050601f831160018114620005b4575f84156200059f578287015190505b620005ab858262000521565b8655506200061a565b601f198416620005c48662000372565b5f5b82811015620005ed57848901518255600182019150602085019450602081019050620005c6565b868310156200060d578489015162000609601f89168262000503565b8355505b6001600288020188555050505b505050505050565b6110d180620006305f395ff3fe608060405234801561000f575f80fd5b50600436106100e8575f3560e01c806340c10f191161008a57806395d89b411161006457806395d89b411461025e5780639d2e42931461027c578063a9059cbb14610286578063dd62ed3e146102b6576100e8565b806340c10f19146101f45780635dfba1151461021057806370a082311461022e576100e8565b80631469d5d4116100c65780631469d5d41461015857806318160ddd1461018857806323b872dd146101a6578063313ce567146101d6576100e8565b80630491739f146100ec57806306fdde031461010a578063095ea7b314610128575b5f80fd5b6100f46102e6565b6040516101019190610c8a565b60405180910390f35b6101126102f7565b60405161011f9190610d2d565b60405180910390f35b610142600480360381019061013d9190610dde565b610383565b60405161014f9190610c8a565b60405180910390f35b610172600480360381019061016d9190610e1c565b610470565b60405161017f9190610e56565b60405180910390f35b6101906104ab565b60405161019d9190610e7e565b60405180910390f35b6101c060048036038101906101bb9190610e97565b6104b0565b6040516101cd9190610c8a565b60405180910390f35b6101de610733565b6040516101eb9190610f02565b60405180910390f35b61020e60048036038101906102099190610dde565b610745565b005b610218610807565b6040516102259190610c8a565b60405180910390f35b61024860048036038101906102439190610f1b565b610819565b6040516102559190610e7e565b60405180910390f35b61026661082e565b6040516102739190610d2d565b60405180910390f35b6102846108ba565b005b6102a0600480360381019061029b9190610dde565b610929565b6040516102ad9190610c8a565b60405180910390f35b6102d060048036038101906102cb9190610f46565b610b7d565b6040516102dd9190610e7e565b60405180910390f35b60018054906101000a900460ff1681565b6005805461030490610fb1565b80601f016020809104026020016040519081016040528092919081815260200182805461033090610fb1565b801561037b5780601f106103525761010080835404028352916020019161037b565b820191905f5260205f20905b81548152906001019060200180831161035e57829003601f168201915b505050505081565b5f8160045f3373ffffffffffffffffffffffffffffffffffffffff1673ffffffffffffffffffffffffffffffffffffffff1681526020019081526020015f205f8573ffffffffffffffffffffffffffffffffffffffff1673ffffffffffffffffffffffffffffffffffffffff1681526020019081526020015f20819055508273ffffffffffffffffffffffffffffffffffffffff163373ffffffffffffffffffffffffffffffffffffffff167f8c5be1e5ebec7d5bd14f71427d1e84f3dd0314c0f7b2291e5b200ac8c7c3b9258460405161045e9190610e7e565b60405180910390a36001905092915050565b6003818154811061047f575f80fd5b905f5260205f20015f915054906101000a900473ffffffffffffffffffffffffffffffffffffffff1681565b5f5481565b5f60015f9054906101000a900460ff16156104cd575f905061072c565b60025f3373ffffffffffffffffffffffffffffffffffffffff1673ffffffffffffffffffffffffffffffffffffffff1681526020019081526020015f205482111561058e578160025f3373ffffffffffffffffffffffffffffffffffffffff1673ffffffffffffffffffffffffffffffffffffffff1681526020019081526020015f20546040517fcf479181000000000000000000000000000000000000000000000000000000008152600401610585929190610fe1565b60405180910390fd5b8160045f8673ffffffffffffffffffffffffffffffffffffffff1673ffffffffffffffffffffffffffffffffffffffff1681526020019081526020015f205f3373ffffffffffffffffffffffffffffffffffffffff1673ffffffffffffffffffffffffffffffffffffffff1681526020019081526020015f205f8282546106159190611035565b925050819055508160025f8673ffffffffffffffffffffffffffffffffffffffff1673ffffffffffffffffffffffffffffffffffffffff1681526020019081526020015f205f8282546106689190611035565b925050819055508160025f8573ffffffffffffffffffffffffffffffffffffffff1673ffffffffffffffffffffffffffffffffffffffff1681526020019081526020015f205f8282546106bb9190611068565b925050819055508273ffffffffffffffffffffffffffffffffffffffff168473ffffffffffffffffffffffffffffffffffffffff167fddf252ad1be2c89b69c2b068fc378daa952ba7f163c4a11628f55a4df523b3ef8460405161071f9190610e7e565b60405180910390a3600190505b9392505050565b60075f9054906101000a900460ff1681565b5f73ffffffffffffffffffffffffffffffffffffffff163373ffffffffffffffffffffffffffffffffffffffff161461077c575f80fd5b6001151560018054906101000a900460ff16151514610799575f80fd5b600382908060018154018082558091505060019003905f5260205f20015f9091909190916101000a81548173ffffffffffffffffffffffffffffffffffffffff021916908373ffffffffffffffffffffffffffffffffffffffff1602179055506108038282610b9d565b5050565b60015f9054906101000a900460ff1681565b6002602052805f5260405f205f915090505481565b6006805461083b90610fb1565b80601f016020809104026020016040519081016040528092919081815260200182805461086790610fb1565b80156108b25780601f10610889576101008083540402835291602001916108b2565b820191905f5260205f20905b81548152906001019060200180831161089557829003601f168201915b505050505081565b5f73ffffffffffffffffffffffffffffffffffffffff163373ffffffffffffffffffffffffffffffffffffffff16146108f1575f80fd5b6001151560018054906101000a900460ff1615151461090e575f80fd5b5f6001806101000a81548160ff021916908315150217905550565b5f80151560015f9054906101000a900460ff16151514610947575f80fd5b60025f3373ffffffffffffffffffffffffffffffffffffffff1673ffffffffffffffffffffffffffffffffffffffff1681526020019081526020015f2054821115610a08578160025f3373ffffffffffffffffffffffffffffffffffffffff1673ffffffffffffffffffffffffffffffffffffffff1681526020019081526020015f20546040517fcf4791810000000000000000000000000000000000000000000000000000000081526004016109ff929190610fe1565b60405180910390fd5b8160025f3373ffffffffffffffffffffffffffffffffffffffff1673ffffffffffffffffffffffffffffffffffffffff1681526020019081526020015f205f828254610a549190611035565b925050819055508160025f8573ffffffffffffffffffffffffffffffffffffffff1673ffffffffffffffffffffffffffffffffffffffff1681526020019081526020015f205f828254610aa79190611068565b92505081905550600383908060018154018082558091505060019003905f5260205f20015f9091909190916101000a81548173ffffffffffffffffffffffffffffffffffffffff021916908373ffffffffffffffffffffffffffffffffffffffff1602179055508273ffffffffffffffffffffffffffffffffffffffff163373ffffffffffffffffffffffffffffffffffffffff167fddf252ad1be2c89b69c2b068fc378daa952ba7f163c4a11628f55a4df523b3ef84604051610b6b9190610e7e565b60405180910390a36001905092915050565b6004602052815f5260405f20602052805f5260405f205f91509150505481565b8060025f8473ffffffffffffffffffffffffffffffffffffffff1673ffffffffffffffffffffffffffffffffffffffff1681526020019081526020015f205f828254610be99190611068565b92505081905550805f80828254610c009190611068565b925050819055508173ffffffffffffffffffffffffffffffffffffffff165f73ffffffffffffffffffffffffffffffffffffffff167fddf252ad1be2c89b69c2b068fc378daa952ba7f163c4a11628f55a4df523b3ef83604051610c649190610e7e565b60405180910390a35050565b5f8115159050919050565b610c8481610c70565b82525050565b5f602082019050610c9d5f830184610c7b565b92915050565b5f81519050919050565b5f82825260208201905092915050565b5f5b83811015610cda578082015181840152602081019050610cbf565b5f8484015250505050565b5f601f19601f8301169050919050565b5f610cff82610ca3565b610d098185610cad565b9350610d19818560208601610cbd565b610d2281610ce5565b840191505092915050565b5f6020820190508181035f830152610d458184610cf5565b905092915050565b5f80fd5b5f73ffffffffffffffffffffffffffffffffffffffff82169050919050565b5f610d7a82610d51565b9050919050565b610d8a81610d70565b8114610d94575f80fd5b50565b5f81359050610da581610d81565b92915050565b5f819050919050565b610dbd81610dab565b8114610dc7575f80fd5b50565b5f81359050610dd881610db4565b92915050565b5f8060408385031215610df457610df3610d4d565b5b5f610e0185828601610d97565b9250506020610e1285828601610dca565b9150509250929050565b5f60208284031215610e3157610e30610d4d565b5b5f610e3e84828501610dca565b91505092915050565b610e5081610d70565b82525050565b5f602082019050610e695f830184610e47565b92915050565b610e7881610dab565b82525050565b5f602082019050610e915f830184610e6f565b92915050565b5f805f60608486031215610eae57610ead610d4d565b5b5f610ebb86828701610d97565b9350506020610ecc86828701610d97565b9250506040610edd86828701610dca565b9150509250925092565b5f60ff82169050919050565b610efc81610ee7565b82525050565b5f602082019050610f155f830184610ef3565b92915050565b5f60208284031215610f3057610f2f610d4d565b5b5f610f3d84828501610d97565b91505092915050565b5f8060408385031215610f5c57610f5b610d4d565b5b5f610f6985828601610d97565b9250506020610f7a85828601610d97565b9150509250929050565b7f4e487b71000000000000000000000000000000000000000000000000000000005f52602260045260245ffd5b5f6002820490506001821680610fc857607f821691505b602082108103610fdb57610fda610f84565b5b50919050565b5f604082019050610ff45f830185610e6f565b6110016020830184610e6f565b9392505050565b7f4e487b71000000000000000000000000000000000000000000000000000000005f52601160045260245ffd5b5f61103f82610dab565b915061104a83610dab565b925082820390508181111561106257611061611008565b5b92915050565b5f61107282610dab565b915061107d83610dab565b925082820190508082111561109557611094611008565b5b9291505056fea2646970667358221220934e70f94451439a52ca5c2c70ea8571be9e2268f909e6eb5785b557d9df972064736f6c63430008150033",
  "immutableReferences": {},
  "source": "// SPDX-License-Identifier: MIT\r\npragma solidity ^0.8.21;\r\n\r\nimport \"./IERC20.sol\";\r\n\r\ncontract UniPGStablecoin is IERC20 {\r\n    /* This event is emitted when the amount of tokens (value) is sent from the from address to the to address.\r\n    In the case of minting new tokens, the transfer is usually from the 0x00..0000 address while in the case of burning tokens the transfer is to 0x00..0000.*/\r\n    event Transfer(address indexed from, address indexed to, uint256 value);\r\n    \r\n    /*This event is emitted when the amount of tokens (value) is approved by the owner to be used by the spender.*/\r\n    event Approval(\r\n        address indexed owner, address indexed spender, uint256 value\r\n    );\r\n\r\n    /*\r\n    ERC20InsufficientAllowance(spender, allowance, needed)\r\n\r\n    ERC20InvalidApprover(approver)\r\n\r\n    ERC20InvalidSpender(spender)*/\r\n\r\n    error RebaseInProgress();\r\n\r\n    error InitialMintingOver();\r\n\r\n    error InsufficientBalance(uint requested, uint available);\r\n\r\n    error InvalidSender(address sender);\r\n\r\n    error InvalidReceiver(address receiver);\r\n\r\n    uint256 public totalSupply;\r\n    bool public isRebasing;\r\n    bool public initialMinting;\r\n    mapping(address => uint256) public balanceOf;\r\n    address[] public walletAddresses;\r\n    mapping(address => mapping(address => uint256)) public allowance;\r\n    string public name;\r\n    string public symbol;\r\n    uint8 public decimals; \r\n\r\n    constructor(string memory _name, string memory _symbol, uint8 _decimals) {\r\n        name = _name;\r\n        symbol = _symbol;\r\n        decimals = _decimals;\r\n        isRebasing = false;\r\n        initialMinting = true;\r\n    }\r\n        \r\n    /* this is used only in the inital phase of the contract where tokens are given to initial backers.*/\r\n    function mint(address to, uint256 amount) external {\r\n        require(msg.sender == address(0));\r\n        require(initialMinting == true);\r\n        walletAddresses.push(to);\r\n        _mint(to, amount);\r\n    }\r\n\r\n    function blockMinting() external {\r\n        require(msg.sender == address(0));\r\n        require(initialMinting == true);\r\n        initialMinting = false;\r\n    }\r\n\r\n    function _mint(address to, uint256 amount) internal {\r\n        balanceOf[to] += amount;\r\n        totalSupply += amount;\r\n        emit Transfer(address(0), to, amount);\r\n    }\r\n\r\n    function _burn(address from, uint256 amount) internal {\r\n        balanceOf[from] -= amount;\r\n        totalSupply -= amount;\r\n        emit Transfer(from, address(0), amount);\r\n    }\r\n\r\n    function _rebase() internal {\r\n        isRebasing = true;\r\n        uint16 price = 105;\r\n        \r\n        /*for loops are not defined for mappings, the workaround is that when a key is added to a mapping,\r\n        it also added to an array */\r\n        for(uint i = 0; i < walletAddresses.length; i++) {\r\n            /* fastest method, but using mint and burn triggers Transfer event\r\n            balanceOf[account] = balanceOf[account] * price; */\r\n\r\n            uint256 diff = balanceOf[walletAddresses[i]] - balanceOf[walletAddresses[i]] * price; \r\n            if(price > 1){\r\n                _mint(walletAddresses[i], diff);\r\n            }else if(price < 1){\r\n                _burn(walletAddresses[i], diff);\r\n            }else{\r\n                // do nothing\r\n            }\r\n        }\r\n        isRebasing = false;\r\n    }\r\n\r\n    function transfer(address recipient, uint256 amount)\r\n        external\r\n        returns (bool)\r\n    {   \r\n        require(isRebasing == false);\r\n        if (amount > balanceOf[msg.sender]){\r\n            revert InsufficientBalance({\r\n                requested: amount,\r\n                available: balanceOf[msg.sender]\r\n            });\r\n        }                \r\n        balanceOf[msg.sender] -= amount;\r\n        balanceOf[recipient] += amount;\r\n        walletAddresses.push(recipient);\r\n        emit Transfer(msg.sender, recipient, amount);\r\n        return true;        \r\n    }\r\n\r\n    function approve(address spender, uint256 amount) external returns (bool) {\r\n        allowance[msg.sender][spender] = amount;\r\n        emit Approval(msg.sender, spender, amount);\r\n        return true;\r\n    }\r\n\r\n    function transferFrom(address sender, address recipient, uint256 amount)\r\n        external\r\n        returns (bool)\r\n    {\r\n        if(isRebasing){\r\n            return false; \r\n        }else{\r\n            if (amount > balanceOf[msg.sender]){\r\n                revert InsufficientBalance({\r\n                    requested: amount,\r\n                    available: balanceOf[msg.sender]\r\n                });\r\n            }\r\n            allowance[sender][msg.sender] -= amount;\r\n            balanceOf[sender] -= amount;\r\n            balanceOf[recipient] += amount;\r\n            emit Transfer(sender, recipient, amount);\r\n            return true;\r\n        }\r\n    }\r\n}\r\n",
  "sourcePath": "C:\\Users\\utente\\Documents\\Uni\\magistrale\\data security\\progetto\\TruffleTest\\contracts\\UniPgStablecoin.sol",
  "compiler": {
    "name": "solc",
    "version": "0.8.21+commit.d9974bed.Emscripten.clang"
  },
  "schemaVersion": "3.4.16",
  "updatedAt": "2024-03-12T16:43:38.228Z",
  "devdoc": {
    "kind": "dev",
    "methods": {},
    "version": 1
  },
  "userdoc": {
    "kind": "user",
    "methods": {},
    "version": 1
  }
}